{
  "_format": "hh-sol-artifact-1",
  "contractName": "TestContract",
  "sourceName": "contracts/TestContract.sol",
  "abi": [
    {
      "inputs": [],
      "stateMutability": "nonpayable",
      "type": "constructor"
    },
    {
      "inputs": [
        {
          "internalType": "uint8",
          "name": "var1",
          "type": "uint8"
        }
      ],
      "name": "test0",
      "outputs": [
        {
          "internalType": "uint8",
          "name": "",
          "type": "uint8"
        }
      ],
      "stateMutability": "pure",
      "type": "function"
    },
    {
      "inputs": [
        {
          "internalType": "int8",
          "name": "var1",
          "type": "int8"
        }
      ],
      "name": "test1",
      "outputs": [
        {
          "internalType": "int8",
          "name": "",
          "type": "int8"
        }
      ],
      "stateMutability": "pure",
      "type": "function"
    },
    {
      "inputs": [
        {
          "internalType": "uint256",
          "name": "var1",
          "type": "uint256"
        }
      ],
      "name": "test10",
      "outputs": [
        {
          "internalType": "uint256",
          "name": "",
          "type": "uint256"
        }
      ],
      "stateMutability": "pure",
      "type": "function"
    },
    {
      "inputs": [
        {
          "internalType": "int256",
          "name": "var1",
          "type": "int256"
        }
      ],
      "name": "test11",
      "outputs": [
        {
          "internalType": "int256",
          "name": "",
          "type": "int256"
        }
      ],
      "stateMutability": "pure",
      "type": "function"
    },
    {
      "inputs": [
        {
          "internalType": "uint256",
          "name": "var1",
          "type": "uint256"
        }
      ],
      "name": "test12",
      "outputs": [
        {
          "internalType": "uint256",
          "name": "",
          "type": "uint256"
        }
      ],
      "stateMutability": "pure",
      "type": "function"
    },
    {
      "inputs": [
        {
          "internalType": "int256",
          "name": "var1",
          "type": "int256"
        }
      ],
      "name": "test13",
      "outputs": [
        {
          "internalType": "int256",
          "name": "",
          "type": "int256"
        }
      ],
      "stateMutability": "pure",
      "type": "function"
    },
    {
      "inputs": [
        {
          "internalType": "address",
          "name": "var1",
          "type": "address"
        }
      ],
      "name": "test14",
      "outputs": [
        {
          "internalType": "address",
          "name": "",
          "type": "address"
        }
      ],
      "stateMutability": "pure",
      "type": "function"
    },
    {
      "inputs": [
        {
          "internalType": "bool",
          "name": "var1",
          "type": "bool"
        }
      ],
      "name": "test15",
      "outputs": [
        {
          "internalType": "bool",
          "name": "",
          "type": "bool"
        }
      ],
      "stateMutability": "pure",
      "type": "function"
    },
    {
      "inputs": [
        {
          "internalType": "bytes5",
          "name": "var1",
          "type": "bytes5"
        }
      ],
      "name": "test16",
      "outputs": [
        {
          "internalType": "bytes5",
          "name": "",
          "type": "bytes5"
        }
      ],
      "stateMutability": "pure",
      "type": "function"
    },
    {
      "inputs": [
        {
          "internalType": "bytes",
          "name": "var1",
          "type": "bytes"
        }
      ],
      "name": "test17",
      "outputs": [
        {
          "internalType": "bytes",
          "name": "",
          "type": "bytes"
        }
      ],
      "stateMutability": "pure",
      "type": "function"
    },
    {
      "inputs": [
        {
          "components": [
            {
              "internalType": "uint128",
              "name": "f",
              "type": "uint128"
            },
            {
              "internalType": "uint256",
              "name": "g",
              "type": "uint256"
            },
            {
              "components": [
                {
                  "internalType": "uint32",
                  "name": "c",
                  "type": "uint32"
                },
                {
                  "internalType": "uint64",
                  "name": "d",
                  "type": "uint64"
                },
                {
                  "components": [
                    {
                      "internalType": "uint8",
                      "name": "a",
                      "type": "uint8"
                    },
                    {
                      "internalType": "uint16",
                      "name": "b",
                      "type": "uint16"
                    }
                  ],
                  "internalType": "struct TestContract.InnermostSampleStruct",
                  "name": "e",
                  "type": "tuple"
                }
              ],
              "internalType": "struct TestContract.InnerSampleStruct",
              "name": "h",
              "type": "tuple"
            },
            {
              "components": [
                {
                  "internalType": "uint8",
                  "name": "a",
                  "type": "uint8"
                },
                {
                  "internalType": "uint16",
                  "name": "b",
                  "type": "uint16"
                }
              ],
              "internalType": "struct TestContract.InnermostSampleStruct",
              "name": "i",
              "type": "tuple"
            }
          ],
          "internalType": "struct TestContract.SampleStruct",
          "name": "var1",
          "type": "tuple"
        }
      ],
      "name": "test18",
      "outputs": [
        {
          "components": [
            {
              "internalType": "uint128",
              "name": "f",
              "type": "uint128"
            },
            {
              "internalType": "uint256",
              "name": "g",
              "type": "uint256"
            },
            {
              "components": [
                {
                  "internalType": "uint32",
                  "name": "c",
                  "type": "uint32"
                },
                {
                  "internalType": "uint64",
                  "name": "d",
                  "type": "uint64"
                },
                {
                  "components": [
                    {
                      "internalType": "uint8",
                      "name": "a",
                      "type": "uint8"
                    },
                    {
                      "internalType": "uint16",
                      "name": "b",
                      "type": "uint16"
                    }
                  ],
                  "internalType": "struct TestContract.InnermostSampleStruct",
                  "name": "e",
                  "type": "tuple"
                }
              ],
              "internalType": "struct TestContract.InnerSampleStruct",
              "name": "h",
              "type": "tuple"
            },
            {
              "components": [
                {
                  "internalType": "uint8",
                  "name": "a",
                  "type": "uint8"
                },
                {
                  "internalType": "uint16",
                  "name": "b",
                  "type": "uint16"
                }
              ],
              "internalType": "struct TestContract.InnermostSampleStruct",
              "name": "i",
              "type": "tuple"
            }
          ],
          "internalType": "struct TestContract.SampleStruct",
          "name": "",
          "type": "tuple"
        }
      ],
      "stateMutability": "pure",
      "type": "function"
    },
    {
      "inputs": [
        {
          "components": [
            {
              "internalType": "uint32",
              "name": "c",
              "type": "uint32"
            },
            {
              "internalType": "uint64",
              "name": "d",
              "type": "uint64"
            },
            {
              "components": [
                {
                  "internalType": "uint8",
                  "name": "a",
                  "type": "uint8"
                },
                {
                  "internalType": "uint16",
                  "name": "b",
                  "type": "uint16"
                }
              ],
              "internalType": "struct TestContract.InnermostSampleStruct",
              "name": "e",
              "type": "tuple"
            }
          ],
          "internalType": "struct TestContract.InnerSampleStruct",
          "name": "var1",
          "type": "tuple"
        }
      ],
      "name": "test19",
      "outputs": [
        {
          "components": [
            {
              "internalType": "uint32",
              "name": "c",
              "type": "uint32"
            },
            {
              "internalType": "uint64",
              "name": "d",
              "type": "uint64"
            },
            {
              "components": [
                {
                  "internalType": "uint8",
                  "name": "a",
                  "type": "uint8"
                },
                {
                  "internalType": "uint16",
                  "name": "b",
                  "type": "uint16"
                }
              ],
              "internalType": "struct TestContract.InnermostSampleStruct",
              "name": "e",
              "type": "tuple"
            }
          ],
          "internalType": "struct TestContract.InnerSampleStruct",
          "name": "",
          "type": "tuple"
        }
      ],
      "stateMutability": "pure",
      "type": "function"
    },
    {
      "inputs": [
        {
          "internalType": "uint16",
          "name": "var1",
          "type": "uint16"
        }
      ],
      "name": "test2",
      "outputs": [
        {
          "internalType": "uint16",
          "name": "",
          "type": "uint16"
        }
      ],
      "stateMutability": "pure",
      "type": "function"
    },
    {
      "inputs": [
        {
          "components": [
            {
              "internalType": "uint8",
              "name": "a",
              "type": "uint8"
            },
            {
              "internalType": "uint16",
              "name": "b",
              "type": "uint16"
            }
          ],
          "internalType": "struct TestContract.InnermostSampleStruct",
          "name": "var1",
          "type": "tuple"
        }
      ],
      "name": "test20",
      "outputs": [
        {
          "components": [
            {
              "internalType": "uint8",
              "name": "a",
              "type": "uint8"
            },
            {
              "internalType": "uint16",
              "name": "b",
              "type": "uint16"
            }
          ],
          "internalType": "struct TestContract.InnermostSampleStruct",
          "name": "",
          "type": "tuple"
        }
      ],
      "stateMutability": "pure",
      "type": "function"
    },
    {
      "inputs": [
        {
          "components": [
            {
              "internalType": "uint128",
              "name": "f",
              "type": "uint128"
            },
            {
              "internalType": "uint256",
              "name": "g",
              "type": "uint256"
            },
            {
              "components": [
                {
                  "internalType": "uint32",
                  "name": "c",
                  "type": "uint32"
                },
                {
                  "internalType": "uint64",
                  "name": "d",
                  "type": "uint64"
                },
                {
                  "components": [
                    {
                      "internalType": "uint8",
                      "name": "a",
                      "type": "uint8"
                    },
                    {
                      "internalType": "uint16",
                      "name": "b",
                      "type": "uint16"
                    }
                  ],
                  "internalType": "struct TestContract.InnermostSampleStruct",
                  "name": "e",
                  "type": "tuple"
                }
              ],
              "internalType": "struct TestContract.InnerSampleStruct",
              "name": "h",
              "type": "tuple"
            },
            {
              "components": [
                {
                  "internalType": "uint8",
                  "name": "a",
                  "type": "uint8"
                },
                {
                  "internalType": "uint16",
                  "name": "b",
                  "type": "uint16"
                }
              ],
              "internalType": "struct TestContract.InnermostSampleStruct",
              "name": "i",
              "type": "tuple"
            }
          ],
          "internalType": "struct TestContract.SampleStruct[]",
          "name": "var1",
          "type": "tuple[]"
        }
      ],
      "name": "test21",
      "outputs": [
        {
          "components": [
            {
              "internalType": "uint128",
              "name": "f",
              "type": "uint128"
            },
            {
              "internalType": "uint256",
              "name": "g",
              "type": "uint256"
            },
            {
              "components": [
                {
                  "internalType": "uint32",
                  "name": "c",
                  "type": "uint32"
                },
                {
                  "internalType": "uint64",
                  "name": "d",
                  "type": "uint64"
                },
                {
                  "components": [
                    {
                      "internalType": "uint8",
                      "name": "a",
                      "type": "uint8"
                    },
                    {
                      "internalType": "uint16",
                      "name": "b",
                      "type": "uint16"
                    }
                  ],
                  "internalType": "struct TestContract.InnermostSampleStruct",
                  "name": "e",
                  "type": "tuple"
                }
              ],
              "internalType": "struct TestContract.InnerSampleStruct",
              "name": "h",
              "type": "tuple"
            },
            {
              "components": [
                {
                  "internalType": "uint8",
                  "name": "a",
                  "type": "uint8"
                },
                {
                  "internalType": "uint16",
                  "name": "b",
                  "type": "uint16"
                }
              ],
              "internalType": "struct TestContract.InnermostSampleStruct",
              "name": "i",
              "type": "tuple"
            }
          ],
          "internalType": "struct TestContract.SampleStruct[]",
          "name": "",
          "type": "tuple[]"
        }
      ],
      "stateMutability": "pure",
      "type": "function"
    },
    {
      "inputs": [
        {
          "components": [
            {
              "internalType": "uint128",
              "name": "f",
              "type": "uint128"
            },
            {
              "internalType": "uint256",
              "name": "g",
              "type": "uint256"
            },
            {
              "components": [
                {
                  "internalType": "uint32",
                  "name": "c",
                  "type": "uint32"
                },
                {
                  "internalType": "uint64",
                  "name": "d",
                  "type": "uint64"
                },
                {
                  "components": [
                    {
                      "internalType": "uint8",
                      "name": "a",
                      "type": "uint8"
                    },
                    {
                      "internalType": "uint16",
                      "name": "b",
                      "type": "uint16"
                    }
                  ],
                  "internalType": "struct TestContract.InnermostSampleStruct",
                  "name": "e",
                  "type": "tuple"
                }
              ],
              "internalType": "struct TestContract.InnerSampleStruct",
              "name": "h",
              "type": "tuple"
            },
            {
              "components": [
                {
                  "internalType": "uint8",
                  "name": "a",
                  "type": "uint8"
                },
                {
                  "internalType": "uint16",
                  "name": "b",
                  "type": "uint16"
                }
              ],
              "internalType": "struct TestContract.InnermostSampleStruct",
              "name": "i",
              "type": "tuple"
            }
          ],
          "internalType": "struct TestContract.SampleStruct[2][10][]",
          "name": "var1",
          "type": "tuple[2][10][]"
        }
      ],
      "name": "test22",
      "outputs": [
        {
          "components": [
            {
              "internalType": "uint128",
              "name": "f",
              "type": "uint128"
            },
            {
              "internalType": "uint256",
              "name": "g",
              "type": "uint256"
            },
            {
              "components": [
                {
                  "internalType": "uint32",
                  "name": "c",
                  "type": "uint32"
                },
                {
                  "internalType": "uint64",
                  "name": "d",
                  "type": "uint64"
                },
                {
                  "components": [
                    {
                      "internalType": "uint8",
                      "name": "a",
                      "type": "uint8"
                    },
                    {
                      "internalType": "uint16",
                      "name": "b",
                      "type": "uint16"
                    }
                  ],
                  "internalType": "struct TestContract.InnermostSampleStruct",
                  "name": "e",
                  "type": "tuple"
                }
              ],
              "internalType": "struct TestContract.InnerSampleStruct",
              "name": "h",
              "type": "tuple"
            },
            {
              "components": [
                {
                  "internalType": "uint8",
                  "name": "a",
                  "type": "uint8"
                },
                {
                  "internalType": "uint16",
                  "name": "b",
                  "type": "uint16"
                }
              ],
              "internalType": "struct TestContract.InnermostSampleStruct",
              "name": "i",
              "type": "tuple"
            }
          ],
          "internalType": "struct TestContract.SampleStruct[2][10][]",
          "name": "",
          "type": "tuple[2][10][]"
        }
      ],
      "stateMutability": "pure",
      "type": "function"
    },
    {
      "inputs": [
        {
          "internalType": "string[]",
          "name": "var1",
          "type": "string[]"
        }
      ],
      "name": "test23",
      "outputs": [
        {
          "internalType": "string[]",
          "name": "",
          "type": "string[]"
        }
      ],
      "stateMutability": "pure",
      "type": "function"
    },
    {
      "inputs": [
        {
          "internalType": "string[4]",
          "name": "var1",
          "type": "string[4]"
        }
      ],
      "name": "test24",
      "outputs": [
        {
          "internalType": "string[4]",
          "name": "",
          "type": "string[4]"
        }
      ],
      "stateMutability": "pure",
      "type": "function"
    },
    {
      "inputs": [
        {
          "internalType": "uint256",
          "name": "location",
          "type": "uint256"
        }
      ],
      "name": "test25",
      "outputs": [
        {
          "internalType": "uint256",
          "name": "",
          "type": "uint256"
        }
      ],
      "stateMutability": "view",
      "type": "function"
    },
    {
      "inputs": [
        {
          "internalType": "uint256",
          "name": "location",
          "type": "uint256"
        }
      ],
      "name": "test26",
      "outputs": [
        {
          "internalType": "uint256",
          "name": "",
          "type": "uint256"
        }
      ],
      "stateMutability": "nonpayable",
      "type": "function"
    },
    {
      "inputs": [
        {
          "internalType": "uint256",
          "name": "location",
          "type": "uint256"
        },
        {
          "components": [
            {
              "internalType": "uint128",
              "name": "f",
              "type": "uint128"
            },
            {
              "internalType": "uint256",
              "name": "g",
              "type": "uint256"
            },
            {
              "components": [
                {
                  "internalType": "uint32",
                  "name": "c",
                  "type": "uint32"
                },
                {
                  "internalType": "uint64",
                  "name": "d",
                  "type": "uint64"
                },
                {
                  "components": [
                    {
                      "internalType": "uint8",
                      "name": "a",
                      "type": "uint8"
                    },
                    {
                      "internalType": "uint16",
                      "name": "b",
                      "type": "uint16"
                    }
                  ],
                  "internalType": "struct TestContract.InnermostSampleStruct",
                  "name": "e",
                  "type": "tuple"
                }
              ],
              "internalType": "struct TestContract.InnerSampleStruct",
              "name": "h",
              "type": "tuple"
            },
            {
              "components": [
                {
                  "internalType": "uint8",
                  "name": "a",
                  "type": "uint8"
                },
                {
                  "internalType": "uint16",
                  "name": "b",
                  "type": "uint16"
                }
              ],
              "internalType": "struct TestContract.InnermostSampleStruct",
              "name": "i",
              "type": "tuple"
            }
          ],
          "internalType": "struct TestContract.SampleStruct",
          "name": "sample",
          "type": "tuple"
        }
      ],
      "name": "test27",
      "outputs": [
        {
          "internalType": "uint256",
          "name": "",
          "type": "uint256"
        }
      ],
      "stateMutability": "payable",
      "type": "function"
    },
    {
      "inputs": [
        {
          "components": [
            {
              "internalType": "uint128",
              "name": "f",
              "type": "uint128"
            },
            {
              "internalType": "uint256",
              "name": "g",
              "type": "uint256"
            },
            {
              "components": [
                {
                  "internalType": "uint32",
                  "name": "c",
                  "type": "uint32"
                },
                {
                  "internalType": "uint64",
                  "name": "d",
                  "type": "uint64"
                },
                {
                  "components": [
                    {
                      "internalType": "uint8",
                      "name": "a",
                      "type": "uint8"
                    },
                    {
                      "internalType": "uint16",
                      "name": "b",
                      "type": "uint16"
                    }
                  ],
                  "internalType": "struct TestContract.InnermostSampleStruct",
                  "name": "e",
                  "type": "tuple"
                }
              ],
              "internalType": "struct TestContract.InnerSampleStruct",
              "name": "h",
              "type": "tuple"
            },
            {
              "components": [
                {
                  "internalType": "uint8",
                  "name": "a",
                  "type": "uint8"
                },
                {
                  "internalType": "uint16",
                  "name": "b",
                  "type": "uint16"
                }
              ],
              "internalType": "struct TestContract.InnermostSampleStruct",
              "name": "i",
              "type": "tuple"
            }
          ],
          "internalType": "struct TestContract.SampleStruct",
          "name": "sample",
          "type": "tuple"
        }
      ],
      "name": "test28",
      "outputs": [
        {
          "internalType": "uint256",
          "name": "",
          "type": "uint256"
        },
        {
          "components": [
            {
              "internalType": "uint128",
              "name": "f",
              "type": "uint128"
            },
            {
              "internalType": "uint256",
              "name": "g",
              "type": "uint256"
            },
            {
              "components": [
                {
                  "internalType": "uint32",
                  "name": "c",
                  "type": "uint32"
                },
                {
                  "internalType": "uint64",
                  "name": "d",
                  "type": "uint64"
                },
                {
                  "components": [
                    {
                      "internalType": "uint8",
                      "name": "a",
                      "type": "uint8"
                    },
                    {
                      "internalType": "uint16",
                      "name": "b",
                      "type": "uint16"
                    }
                  ],
                  "internalType": "struct TestContract.InnermostSampleStruct",
                  "name": "e",
                  "type": "tuple"
                }
              ],
              "internalType": "struct TestContract.InnerSampleStruct",
              "name": "h",
              "type": "tuple"
            },
            {
              "components": [
                {
                  "internalType": "uint8",
                  "name": "a",
                  "type": "uint8"
                },
                {
                  "internalType": "uint16",
                  "name": "b",
                  "type": "uint16"
                }
              ],
              "internalType": "struct TestContract.InnermostSampleStruct",
              "name": "i",
              "type": "tuple"
            }
          ],
          "internalType": "struct TestContract.SampleStruct",
          "name": "",
          "type": "tuple"
        }
      ],
      "stateMutability": "nonpayable",
      "type": "function"
    },
    {
      "inputs": [
        {
          "internalType": "int16",
          "name": "var1",
          "type": "int16"
        }
      ],
      "name": "test3",
      "outputs": [
        {
          "internalType": "int16",
          "name": "",
          "type": "int16"
        }
      ],
      "stateMutability": "pure",
      "type": "function"
    },
    {
      "inputs": [
        {
          "internalType": "uint32",
          "name": "var1",
          "type": "uint32"
        }
      ],
      "name": "test4",
      "outputs": [
        {
          "internalType": "uint32",
          "name": "",
          "type": "uint32"
        }
      ],
      "stateMutability": "pure",
      "type": "function"
    },
    {
      "inputs": [
        {
          "internalType": "int32",
          "name": "var1",
          "type": "int32"
        }
      ],
      "name": "test5",
      "outputs": [
        {
          "internalType": "int32",
          "name": "",
          "type": "int32"
        }
      ],
      "stateMutability": "pure",
      "type": "function"
    },
    {
      "inputs": [
        {
          "internalType": "uint64",
          "name": "var1",
          "type": "uint64"
        }
      ],
      "name": "test6",
      "outputs": [
        {
          "internalType": "uint64",
          "name": "",
          "type": "uint64"
        }
      ],
      "stateMutability": "pure",
      "type": "function"
    },
    {
      "inputs": [
        {
          "internalType": "int64",
          "name": "var1",
          "type": "int64"
        }
      ],
      "name": "test7",
      "outputs": [
        {
          "internalType": "int64",
          "name": "",
          "type": "int64"
        }
      ],
      "stateMutability": "pure",
      "type": "function"
    },
    {
      "inputs": [
        {
          "internalType": "uint128",
          "name": "var1",
          "type": "uint128"
        }
      ],
      "name": "test8",
      "outputs": [
        {
          "internalType": "uint128",
          "name": "",
          "type": "uint128"
        }
      ],
      "stateMutability": "pure",
      "type": "function"
    },
    {
      "inputs": [
        {
          "internalType": "int128",
          "name": "var1",
          "type": "int128"
        }
      ],
      "name": "test9",
      "outputs": [
        {
          "internalType": "int128",
          "name": "",
          "type": "int128"
        }
      ],
      "stateMutability": "pure",
      "type": "function"
    }
  ],
  "bytecode": "0x608060405234801561001057600080fd5b50612b52806100206000396000f3fe6080604052600436106101c25760003560e01c80636185f6e8116100f7578063add2f8de11610095578063d5d899eb11610064578063d5d899eb146107b0578063d946446a146107ed578063dbe12a311461082a578063efb9bef314610867576101c2565b8063add2f8de146106bc578063b23dde56146106f9578063b2c6452614610736578063ca00ff6f14610773576101c2565b80637fb353fd116100d15780637fb353fd146105d557806385b41132146106125780639dbf2c6b1461064f578063a18a843e1461067f576101c2565b80636185f6e81461051e5780637327b43a1461055b5780637e123eeb14610598576101c2565b80632ec0afb2116101645780634d5bf4f91161013e5780634d5bf4f91461042a5780634dd3793f1461046757806354a5f96c146104a45780635f99bb75146104e1576101c2565b80632ec0afb21461037257806341d1bdf6146103af57806347c3d86b146103ed576101c2565b806319f1bb3e116101a057806319f1bb3e1461027e5780632423f834146102bb578063245080ae146102f857806324c65dbd14610335576101c2565b8063039e7e4d146101c757806312ceeb111461020457806315d5037e14610241575b600080fd5b3480156101d357600080fd5b506101ee60048036038101906101e9919061176b565b6108a4565b6040516101fb9190612030565b60405180910390f35b34801561021057600080fd5b5061022b600480360381019061022691906116dc565b6108ba565b6040516102389190611fd0565b60405180910390f35b34801561024d57600080fd5b50610268600480360381019061026391906116dc565b6108d0565b6040516102759190611fd0565b60405180910390f35b34801561028a57600080fd5b506102a560048036038101906102a09190611794565b61090e565b6040516102b2919061204b565b60405180910390f35b3480156102c757600080fd5b506102e260048036038101906102dd9190611660565b610924565b6040516102ef9190611f7e565b60405180910390f35b34801561030457600080fd5b5061031f600480360381019061031a9190611358565b610934565b60405161032c9190611dab565b60405180910390f35b34801561034157600080fd5b5061035c60048036038101906103579190611485565b61093e565b6040516103699190611e4e565b60405180910390f35b34801561037e57600080fd5b5061039960048036038101906103949190611403565b610949565b6040516103a69190611e0a565b60405180910390f35b3480156103bb57600080fd5b506103d660048036038101906103d19190611660565b610953565b6040516103e4929190611feb565b60405180910390f35b3480156103f957600080fd5b50610414600480360381019061040f91906114d7565b6109cc565b6040516104219190611e84565b60405180910390f35b34801561043657600080fd5b50610451600480360381019061044c91906115bc565b6109d6565b60405161045e9190611f12565b60405180910390f35b34801561047357600080fd5b5061048e600480360381019061048991906114ae565b6109ec565b60405161049b9190611e69565b60405180910390f35b3480156104b057600080fd5b506104cb60048036038101906104c69190611444565b6109f6565b6040516104d89190611e2c565b60405180910390f35b3480156104ed57600080fd5b5061050860048036038101906105039190611541565b610a00565b6040516105159190611ec1565b60405180910390f35b34801561052a57600080fd5b50610545600480360381019061054091906116dc565b610a16565b6040516105529190611fd0565b60405180910390f35b34801561056757600080fd5b50610582600480360381019061057d9190611593565b610a63565b60405161058f9190611ef7565b60405180910390f35b3480156105a457600080fd5b506105bf60048036038101906105ba91906116dc565b610a79565b6040516105cc9190611fd0565b60405180910390f35b3480156105e157600080fd5b506105fc60048036038101906105f7919061156a565b610a8f565b6040516106099190611edc565b60405180910390f35b34801561061e57600080fd5b506106396004803603810190610634919061168a565b610aa5565b6040516106469190611f9a565b60405180910390f35b61066960048036038101906106649190611705565b610abb565b6040516106769190611fd0565b60405180910390f35b34801561068b57600080fd5b506106a660048036038101906106a1919061160e565b610b23565b6040516106b39190611f48565b60405180910390f35b3480156106c857600080fd5b506106e360048036038101906106de91906116b3565b610b33565b6040516106f09190611fb5565b60405180910390f35b34801561070557600080fd5b50610720600480360381019061071b9190611742565b610b49565b60405161072d9190612015565b60405180910390f35b34801561074257600080fd5b5061075d60048036038101906107589190611381565b610b5f565b60405161076a9190611dc6565b60405180910390f35b34801561077f57600080fd5b5061079a600480360381019061079591906113c2565b610b69565b6040516107a79190611de8565b60405180910390f35b3480156107bc57600080fd5b506107d760048036038101906107d29190611637565b610b79565b6040516107e49190611f63565b60405180910390f35b3480156107f957600080fd5b50610814600480360381019061080f919061156a565b610b89565b6040516108219190611edc565b60405180910390f35b34801561083657600080fd5b50610851600480360381019061084c9190611518565b610b9f565b60405161085e9190611ea6565b60405180910390f35b34801561087357600080fd5b5061088e600480360381019061088991906115e5565b610bb5565b60405161089b9190611f2d565b60405180910390f35b60006041826108b39190612752565b9050919050565b60006041826108c991906126c2565b9050919050565b60008082908060018154018082558091505060019003906000526020600020016000909190919091505560018261090791906126c2565b9050919050565b600060418261091d9190612790565b9050919050565b61092c610bcb565b819050919050565b6000819050919050565b600081159050919050565b6060819050919050565b600061095d610bcb565b6000836000015190806001815401808255809150506001900390600052602060002001600090916fffffffffffffffffffffffffffffffff16909190915055600283600001516109ad9190612644565b83816fffffffffffffffffffffffffffffffff16915091509150915091565b6060819050919050565b60006041826109e59190612553565b9050919050565b6000819050919050565b6060819050919050565b6000604182610a0f91906123d1565b9050919050565b6000808281548110610a51577f4e487b7100000000000000000000000000000000000000000000000000000000600052603260045260246000fd5b90600052602060002001549050919050565b6000604182610a7291906124db565b9050919050565b6000604182610a8891906126c2565b9050919050565b6000604182610a9e9190612447565b9050919050565b6000604182610ab49190612644565b9050919050565b6000808390806001815401808255809150506001900390600052602060002001600090919091909150556000349080600181540180825580915050600190039060005260206000200160009091909190915055600283610b1b91906126c2565b905092915050565b610b2b610c11565b819050919050565b6000604182610b42919061268a565b9050919050565b6000604182610b589190612718565b9050919050565b6060819050919050565b610b71610c48565b819050919050565b610b81610c6f565b819050919050565b6000604182610b989190612447565b9050919050565b6000604182610bae919061234d565b9050919050565b6000604182610bc491906125cf565b9050919050565b604051806080016040528060006fffffffffffffffffffffffffffffffff16815260200160008152602001610bfe610c11565b8152602001610c0b610c6f565b81525090565b6040518060600160405280600063ffffffff168152602001600067ffffffffffffffff168152602001610c42610c6f565b81525090565b60405180608001604052806004905b6060815260200190600190039081610c575790505090565b6040518060400160405280600060ff168152602001600061ffff1681525090565b6000610ca3610c9e8461208b565b612066565b9050808382526020820190508285611400860282011115610cc357600080fd5b60005b85811015610cf45781610cd98882610ff4565b84526020840193506114008301925050600181019050610cc6565b5050509392505050565b6000610d11610d0c846120b7565b612066565b9050808285610200860282011115610d2857600080fd5b60005b85811015610d595781610d3e888261106c565b84526020840193506102008301925050600181019050610d2b565b5050509392505050565b6000610d76610d71846120dd565b612066565b90508082856020860282011115610d8c57600080fd5b60005b85811015610dd657813567ffffffffffffffff811115610dae57600080fd5b808601610dbb898261118f565b85526020850194506020840193505050600181019050610d8f565b5050509392505050565b6000610df3610dee84612103565b612066565b90508083825260208201905082856020860282011115610e1257600080fd5b60005b85811015610e5c57813567ffffffffffffffff811115610e3457600080fd5b808601610e41898261118f565b85526020850194506020840193505050600181019050610e15565b5050509392505050565b6000610e79610e748461212f565b612066565b9050808285610100860282011115610e9057600080fd5b60005b85811015610ec15781610ea68882611265565b84526020840193506101008301925050600181019050610e93565b5050509392505050565b6000610ede610ed984612155565b612066565b9050808382526020820190508285610100860282011115610efe57600080fd5b60005b85811015610f2f5781610f148882611265565b84526020840193506101008301925050600181019050610f01565b5050509392505050565b6000610f4c610f4784612181565b612066565b905082815260208101848484011115610f6457600080fd5b610f6f8482856128e1565b509392505050565b6000610f8a610f85846121b2565b612066565b905082815260208101848484011115610fa257600080fd5b610fad8482856128e1565b509392505050565b600081359050610fc4816129c3565b92915050565b600082601f830112610fdb57600080fd5b8135610feb848260208601610c90565b91505092915050565b600082601f83011261100557600080fd5b600a611012848285610cfe565b91505092915050565b600082601f83011261102c57600080fd5b6004611039848285610d63565b91505092915050565b600082601f83011261105357600080fd5b8135611063848260208601610de0565b91505092915050565b600082601f83011261107d57600080fd5b600261108a848285610e66565b91505092915050565b600082601f8301126110a457600080fd5b81356110b4848260208601610ecb565b91505092915050565b6000813590506110cc816129da565b92915050565b6000813590506110e1816129f1565b92915050565b600082601f8301126110f857600080fd5b8135611108848260208601610f39565b91505092915050565b60008135905061112081612a08565b92915050565b60008135905061113581612a1f565b92915050565b60008135905061114a81612a36565b92915050565b60008135905061115f81612a4d565b92915050565b60008135905061117481612a64565b92915050565b60008135905061118981612a7b565b92915050565b600082601f8301126111a057600080fd5b81356111b0848260208601610f77565b91505092915050565b6000608082840312156111cb57600080fd5b6111d56060612066565b905060006111e584828501611319565b60008301525060206111f98482850161132e565b602083015250604061120d84828501611219565b60408301525092915050565b60006040828403121561122b57600080fd5b6112356040612066565b9050600061124584828501611343565b6000830152506020611259848285016112ef565b60208301525092915050565b6000610100828403121561127857600080fd5b6112826080612066565b90506000611292848285016112da565b60008301525060206112a684828501611304565b60208301525060406112ba848285016111b9565b60408301525060c06112ce84828501611219565b60608301525092915050565b6000813590506112e981612a92565b92915050565b6000813590506112fe81612aa9565b92915050565b60008135905061131381612ac0565b92915050565b60008135905061132881612ad7565b92915050565b60008135905061133d81612aee565b92915050565b60008135905061135281612b05565b92915050565b60006020828403121561136a57600080fd5b600061137884828501610fb5565b91505092915050565b60006020828403121561139357600080fd5b600082013567ffffffffffffffff8111156113ad57600080fd5b6113b984828501610fca565b91505092915050565b6000602082840312156113d457600080fd5b600082013567ffffffffffffffff8111156113ee57600080fd5b6113fa8482850161101b565b91505092915050565b60006020828403121561141557600080fd5b600082013567ffffffffffffffff81111561142f57600080fd5b61143b84828501611042565b91505092915050565b60006020828403121561145657600080fd5b600082013567ffffffffffffffff81111561147057600080fd5b61147c84828501611093565b91505092915050565b60006020828403121561149757600080fd5b60006114a5848285016110bd565b91505092915050565b6000602082840312156114c057600080fd5b60006114ce848285016110d2565b91505092915050565b6000602082840312156114e957600080fd5b600082013567ffffffffffffffff81111561150357600080fd5b61150f848285016110e7565b91505092915050565b60006020828403121561152a57600080fd5b600061153884828501611111565b91505092915050565b60006020828403121561155357600080fd5b600061156184828501611126565b91505092915050565b60006020828403121561157c57600080fd5b600061158a8482850161113b565b91505092915050565b6000602082840312156115a557600080fd5b60006115b384828501611150565b91505092915050565b6000602082840312156115ce57600080fd5b60006115dc84828501611165565b91505092915050565b6000602082840312156115f757600080fd5b60006116058482850161117a565b91505092915050565b60006080828403121561162057600080fd5b600061162e848285016111b9565b91505092915050565b60006040828403121561164957600080fd5b600061165784828501611219565b91505092915050565b6000610100828403121561167357600080fd5b600061168184828501611265565b91505092915050565b60006020828403121561169c57600080fd5b60006116aa848285016112da565b91505092915050565b6000602082840312156116c557600080fd5b60006116d3848285016112ef565b91505092915050565b6000602082840312156116ee57600080fd5b60006116fc84828501611304565b91505092915050565b600080610120838503121561171957600080fd5b600061172785828601611304565b925050602061173885828601611265565b9150509250929050565b60006020828403121561175457600080fd5b600061176284828501611319565b91505092915050565b60006020828403121561177d57600080fd5b600061178b8482850161132e565b91505092915050565b6000602082840312156117a657600080fd5b60006117b484828501611343565b91505092915050565b60006117c98383611889565b6114008301905092915050565b60006117e283836119ca565b6102008301905092915050565b60006117fb8383611b30565b905092915050565b600061180f8383611c4b565b6101008301905092915050565b611825816127c7565b82525050565b600061183682612231565b61184081856122d7565b935061184b836121e3565b8060005b8381101561187c57815161186388826117bd565b975061186e83612289565b92505060018101905061184f565b5085935050505092915050565b6118928161223c565b61189c81846122e8565b92506118a7826121f3565b8060005b838110156118d85781516118bf87826117d6565b96506118ca83612296565b9250506001810190506118ab565b505050505050565b60006118eb82612247565b6118f581856122f3565b935083602082028501611907856121fd565b8060005b85811015611943578484038952815161192485826117ef565b945061192f836122a3565b925060208a0199505060018101905061190b565b50829750879550505050505092915050565b600061196082612252565b61196a81856122fe565b93508360208202850161197c85612207565b8060005b858110156119b8578484038952815161199985826117ef565b94506119a4836122b0565b925060208a01995050600181019050611980565b50829750879550505050505092915050565b6119d38161225d565b6119dd818461230f565b92506119e882612217565b8060005b83811015611a19578151611a008782611803565b9650611a0b836122bd565b9250506001810190506119ec565b505050505050565b6000611a2c82612268565b611a36818561231a565b9350611a4183612221565b8060005b83811015611a72578151611a598882611803565b9750611a64836122ca565b925050600181019050611a45565b5085935050505092915050565b611a88816127d9565b82525050565b611a97816127e5565b82525050565b6000611aa882612273565b611ab2818561232b565b9350611ac28185602086016128f0565b611acb816129b2565b840191505092915050565b611adf81612811565b82525050565b611aee8161281e565b82525050565b611afd8161282b565b82525050565b611b0c81612835565b82525050565b611b1b81612842565b82525050565b611b2a8161284f565b82525050565b6000611b3b8261227e565b611b45818561233c565b9350611b558185602086016128f0565b611b5e816129b2565b840191505092915050565b608082016000820151611b7f6000850182611d51565b506020820151611b926020850182611d6f565b506040820151611ba56040850182611bed565b50505050565b608082016000820151611bc16000850182611d51565b506020820151611bd46020850182611d6f565b506040820151611be76040850182611bed565b50505050565b604082016000820151611c036000850182611d8d565b506020820151611c166020850182611d15565b50505050565b604082016000820151611c326000850182611d8d565b506020820151611c456020850182611d15565b50505050565b61010082016000820151611c626000850182611cf7565b506020820151611c756020850182611d33565b506040820151611c886040850182611b69565b506060820151611c9b60c0850182611bed565b50505050565b61010082016000820151611cb86000850182611cf7565b506020820151611ccb6020850182611d33565b506040820151611cde6040850182611b69565b506060820151611cf160c0850182611bed565b50505050565b611d008161285c565b82525050565b611d0f8161285c565b82525050565b611d1e81612878565b82525050565b611d2d81612878565b82525050565b611d3c816128a6565b82525050565b611d4b816128a6565b82525050565b611d5a816128b0565b82525050565b611d69816128b0565b82525050565b611d78816128c0565b82525050565b611d87816128c0565b82525050565b611d96816128d4565b82525050565b611da5816128d4565b82525050565b6000602082019050611dc0600083018461181c565b92915050565b60006020820190508181036000830152611de0818461182b565b905092915050565b60006020820190508181036000830152611e0281846118e0565b905092915050565b60006020820190508181036000830152611e248184611955565b905092915050565b60006020820190508181036000830152611e468184611a21565b905092915050565b6000602082019050611e636000830184611a7f565b92915050565b6000602082019050611e7e6000830184611a8e565b92915050565b60006020820190508181036000830152611e9e8184611a9d565b905092915050565b6000602082019050611ebb6000830184611ad6565b92915050565b6000602082019050611ed66000830184611ae5565b92915050565b6000602082019050611ef16000830184611af4565b92915050565b6000602082019050611f0c6000830184611b03565b92915050565b6000602082019050611f276000830184611b12565b92915050565b6000602082019050611f426000830184611b21565b92915050565b6000608082019050611f5d6000830184611bab565b92915050565b6000604082019050611f786000830184611c1c565b92915050565b600061010082019050611f946000830184611ca1565b92915050565b6000602082019050611faf6000830184611d06565b92915050565b6000602082019050611fca6000830184611d24565b92915050565b6000602082019050611fe56000830184611d42565b92915050565b6000610120820190506120016000830185611d42565b61200e6020830184611ca1565b9392505050565b600060208201905061202a6000830184611d60565b92915050565b60006020820190506120456000830184611d7e565b92915050565b60006020820190506120606000830184611d9c565b92915050565b6000612070612081565b905061207c8282612923565b919050565b6000604051905090565b600067ffffffffffffffff8211156120a6576120a5612983565b5b602082029050602081019050919050565b600067ffffffffffffffff8211156120d2576120d1612983565b5b602082029050919050565b600067ffffffffffffffff8211156120f8576120f7612983565b5b602082029050919050565b600067ffffffffffffffff82111561211e5761211d612983565b5b602082029050602081019050919050565b600067ffffffffffffffff82111561214a57612149612983565b5b602082029050919050565b600067ffffffffffffffff8211156121705761216f612983565b5b602082029050602081019050919050565b600067ffffffffffffffff82111561219c5761219b612983565b5b6121a5826129b2565b9050602081019050919050565b600067ffffffffffffffff8211156121cd576121cc612983565b5b6121d6826129b2565b9050602081019050919050565b6000819050602082019050919050565b6000819050919050565b6000819050919050565b6000819050602082019050919050565b6000819050919050565b6000819050602082019050919050565b600081519050919050565b6000600a9050919050565b600060049050919050565b600081519050919050565b600060029050919050565b600081519050919050565b600081519050919050565b600081519050919050565b6000602082019050919050565b6000602082019050919050565b6000602082019050919050565b6000602082019050919050565b6000602082019050919050565b6000602082019050919050565b600082825260208201905092915050565b600081905092915050565b600081905092915050565b600082825260208201905092915050565b600081905092915050565b600082825260208201905092915050565b600082825260208201905092915050565b600082825260208201905092915050565b600061235882612811565b915061236383612811565b9250816f7fffffffffffffffffffffffffffffff0383136000831215161561238e5761238d612954565b5b817fffffffffffffffffffffffffffffffff800000000000000000000000000000000383126000831216156123c6576123c5612954565b5b828201905092915050565b60006123dc8261281e565b91506123e78361281e565b925081617fff0383136000831215161561240457612403612954565b5b817fffffffffffffffffffffffffffffffffffffffffffffffffffffffffffff800003831260008312161561243c5761243b612954565b5b828201905092915050565b60006124528261282b565b915061245d8361282b565b9250817f7fffffffffffffffffffffffffffffffffffffffffffffffffffffffffffffff0383136000831215161561249857612497612954565b5b817f80000000000000000000000000000000000000000000000000000000000000000383126000831216156124d0576124cf612954565b5b828201905092915050565b60006124e682612835565b91506124f183612835565b925081637fffffff038313600083121516156125105761250f612954565b5b817fffffffffffffffffffffffffffffffffffffffffffffffffffffffff8000000003831260008312161561254857612547612954565b5b828201905092915050565b600061255e82612842565b915061256983612842565b925081677fffffffffffffff0383136000831215161561258c5761258b612954565b5b817fffffffffffffffffffffffffffffffffffffffffffffffff80000000000000000383126000831216156125c4576125c3612954565b5b828201905092915050565b60006125da8261284f565b91506125e58361284f565b925081607f0383136000831215161561260157612600612954565b5b817fffffffffffffffffffffffffffffffffffffffffffffffffffffffffffffff8003831260008312161561263957612638612954565b5b828201905092915050565b600061264f8261285c565b915061265a8361285c565b9250826fffffffffffffffffffffffffffffffff0382111561267f5761267e612954565b5b828201905092915050565b600061269582612878565b91506126a083612878565b92508261ffff038211156126b7576126b6612954565b5b828201905092915050565b60006126cd826128a6565b91506126d8836128a6565b9250827fffffffffffffffffffffffffffffffffffffffffffffffffffffffffffffffff0382111561270d5761270c612954565b5b828201905092915050565b6000612723826128b0565b915061272e836128b0565b92508263ffffffff0382111561274757612746612954565b5b828201905092915050565b600061275d826128c0565b9150612768836128c0565b92508267ffffffffffffffff0382111561278557612784612954565b5b828201905092915050565b600061279b826128d4565b91506127a6836128d4565b92508260ff038211156127bc576127bb612954565b5b828201905092915050565b60006127d282612886565b9050919050565b60008115159050919050565b60007fffffffffff00000000000000000000000000000000000000000000000000000082169050919050565b600081600f0b9050919050565b60008160010b9050919050565b6000819050919050565b60008160030b9050919050565b60008160070b9050919050565b60008160000b9050919050565b60006fffffffffffffffffffffffffffffffff82169050919050565b600061ffff82169050919050565b600073ffffffffffffffffffffffffffffffffffffffff82169050919050565b6000819050919050565b600063ffffffff82169050919050565b600067ffffffffffffffff82169050919050565b600060ff82169050919050565b82818337600083830152505050565b60005b8381101561290e5780820151818401526020810190506128f3565b8381111561291d576000848401525b50505050565b61292c826129b2565b810181811067ffffffffffffffff8211171561294b5761294a612983565b5b80604052505050565b7f4e487b7100000000000000000000000000000000000000000000000000000000600052601160045260246000fd5b7f4e487b7100000000000000000000000000000000000000000000000000000000600052604160045260246000fd5b6000601f19601f8301169050919050565b6129cc816127c7565b81146129d757600080fd5b50565b6129e3816127d9565b81146129ee57600080fd5b50565b6129fa816127e5565b8114612a0557600080fd5b50565b612a1181612811565b8114612a1c57600080fd5b50565b612a288161281e565b8114612a3357600080fd5b50565b612a3f8161282b565b8114612a4a57600080fd5b50565b612a5681612835565b8114612a6157600080fd5b50565b612a6d81612842565b8114612a7857600080fd5b50565b612a848161284f565b8114612a8f57600080fd5b50565b612a9b8161285c565b8114612aa657600080fd5b50565b612ab281612878565b8114612abd57600080fd5b50565b612ac9816128a6565b8114612ad457600080fd5b50565b612ae0816128b0565b8114612aeb57600080fd5b50565b612af7816128c0565b8114612b0257600080fd5b50565b612b0e816128d4565b8114612b1957600080fd5b5056fea26469706673582212208706a7ccd5baa4a6bcd6f51b32672d4bd3d30b47247005f3e30037364851252864736f6c63430008040033",
  "linkReferences": {},
  "deployedLinkReferences": {}
}